{
  "contractName": "NameValue",
  "abi": [
    {
      "inputs": [
        {
          "internalType": "uint256",
          "name": "",
          "type": "uint256"
        }
      ],
      "name": "allowedAddresses",
      "outputs": [
        {
          "internalType": "address",
          "name": "",
          "type": "address"
        }
      ],
      "stateMutability": "view",
      "type": "function"
    },
    {
      "inputs": [],
      "name": "cmu",
      "outputs": [
        {
          "internalType": "address payable",
          "name": "",
          "type": "address"
        }
      ],
      "stateMutability": "view",
      "type": "function"
    },
    {
      "inputs": [],
      "name": "currentRental",
      "outputs": [
        {
          "internalType": "uint256",
          "name": "endTime",
          "type": "uint256"
        },
        {
          "internalType": "address",
          "name": "currentRenter",
          "type": "address"
        }
      ],
      "stateMutability": "view",
      "type": "function"
    },
    {
      "inputs": [],
      "name": "rentalValue",
      "outputs": [
        {
          "internalType": "uint256",
          "name": "",
          "type": "uint256"
        }
      ],
      "stateMutability": "view",
      "type": "function"
    },
    {
      "inputs": [],
      "name": "rentCmuScooter",
      "outputs": [],
      "stateMutability": "payable",
      "type": "function"
    },
    {
      "inputs": [
        {
          "internalType": "address",
          "name": "_address",
          "type": "address"
        }
      ],
      "name": "isStudent",
      "outputs": [
        {
          "internalType": "bool",
          "name": "",
          "type": "bool"
        }
      ],
      "stateMutability": "view",
      "type": "function"
    }
  ],
  "bytecode": "0x6080604052735122b8510f5c246e11a860463e90fc94e70802626000806101000a81548173ffffffffffffffffffffffffffffffffffffffff021916908373ffffffffffffffffffffffffffffffffffffffff160217905550662386f26fc10000600155604051806040016040528073dcee6401d6ea30bd6ee8d863dfc9296892d2b39d73ffffffffffffffffffffffffffffffffffffffff1673ffffffffffffffffffffffffffffffffffffffff16815260200173e057411810e2942ebb4c93f4100e2f16383f59a473ffffffffffffffffffffffffffffffffffffffff1673ffffffffffffffffffffffffffffffffffffffff16815250600290600261010892919061011b565b5034801561011557600080fd5b506101c2565b828054828255906000526020600020908101928215610194579160200282015b828111156101935782518260006101000a81548173ffffffffffffffffffffffffffffffffffffffff021916908373ffffffffffffffffffffffffffffffffffffffff1602179055509160200191906001019061013b565b5b5090506101a191906101a5565b5090565b5b808211156101be5760008160009055506001016101a6565b5090565b6108a8806101d16000396000f3fe6080604052600436106100555760003560e01c80633fe436011461005a57806364b55bed14610085578063720ec5f5146100c257806382f7d392146100cc57806397951eae14610109578063c04ea64414610134575b600080fd5b34801561006657600080fd5b5061006f610160565b60405161007c9190610458565b60405180910390f35b34801561009157600080fd5b506100ac60048036038101906100a791906104a4565b610166565b6040516100b99190610512565b60405180910390f35b6100ca6101a5565b005b3480156100d857600080fd5b506100f360048036038101906100ee9190610559565b61033b565b60405161010091906105a1565b60405180910390f35b34801561011557600080fd5b5061011e6103e9565b60405161012b91906105dd565b60405180910390f35b34801561014057600080fd5b5061014961040d565b6040516101579291906105f8565b60405180910390f35b60015481565b6002818154811061017657600080fd5b906000526020600020016000915054906101000a900473ffffffffffffffffffffffffffffffffffffffff1681565b6101ae3361033b565b6101ed576040517f08c379a00000000000000000000000000000000000000000000000000000000081526004016101e49061067e565b60405180910390fd5b600154471015610232576040517f08c379a0000000000000000000000000000000000000000000000000000000008152600401610229906106ea565b60405180910390fd5b6001543414610276576040517f08c379a000000000000000000000000000000000000000000000000000000000815260040161026d90610756565b60405180910390fd5b620151804261028591906107a5565b60036000018190555033600360010160006101000a81548173ffffffffffffffffffffffffffffffffffffffff021916908373ffffffffffffffffffffffffffffffffffffffff16021790555060008054906101000a900473ffffffffffffffffffffffffffffffffffffffff1673ffffffffffffffffffffffffffffffffffffffff166108fc349081150290604051600060405180830381858888f19350505050158015610338573d6000803e3d6000fd5b50565b600080600090505b6002805490508110156103de578273ffffffffffffffffffffffffffffffffffffffff166002828154811061037b5761037a6107fb565b5b9060005260206000200160009054906101000a900473ffffffffffffffffffffffffffffffffffffffff1673ffffffffffffffffffffffffffffffffffffffff16036103cb5760019150506103e4565b80806103d69061082a565b915050610343565b50600090505b919050565b60008054906101000a900473ffffffffffffffffffffffffffffffffffffffff1681565b60038060000154908060010160009054906101000a900473ffffffffffffffffffffffffffffffffffffffff16905082565b6000819050919050565b6104528161043f565b82525050565b600060208201905061046d6000830184610449565b92915050565b600080fd5b6104818161043f565b811461048c57600080fd5b50565b60008135905061049e81610478565b92915050565b6000602082840312156104ba576104b9610473565b5b60006104c88482850161048f565b91505092915050565b600073ffffffffffffffffffffffffffffffffffffffff82169050919050565b60006104fc826104d1565b9050919050565b61050c816104f1565b82525050565b60006020820190506105276000830184610503565b92915050565b610536816104f1565b811461054157600080fd5b50565b6000813590506105538161052d565b92915050565b60006020828403121561056f5761056e610473565b5b600061057d84828501610544565b91505092915050565b60008115159050919050565b61059b81610586565b82525050565b60006020820190506105b66000830184610592565b92915050565b60006105c7826104d1565b9050919050565b6105d7816105bc565b82525050565b60006020820190506105f260008301846105ce565b92915050565b600060408201905061060d6000830185610449565b61061a6020830184610503565b9392505050565b600082825260208201905092915050565b7f596f7520617265206e6f74206120434d552073747564656e7400000000000000600082015250565b6000610668601983610621565b915061067382610632565b602082019050919050565b600060208201905081810360008301526106978161065b565b9050919050565b7f496e73756666696369656e742062616c616e636520746f2072656e7400000000600082015250565b60006106d4601c83610621565b91506106df8261069e565b602082019050919050565b60006020820190508181036000830152610703816106c7565b9050919050565b7f496e636f72726563742072656e74616c2076616c756500000000000000000000600082015250565b6000610740601683610621565b915061074b8261070a565b602082019050919050565b6000602082019050818103600083015261076f81610733565b9050919050565b7f4e487b7100000000000000000000000000000000000000000000000000000000600052601160045260246000fd5b60006107b08261043f565b91506107bb8361043f565b9250827fffffffffffffffffffffffffffffffffffffffffffffffffffffffffffffffff038211156107f0576107ef610776565b5b828201905092915050565b7f4e487b7100000000000000000000000000000000000000000000000000000000600052603260045260246000fd5b60006108358261043f565b91507fffffffffffffffffffffffffffffffffffffffffffffffffffffffffffffffff820361086757610866610776565b5b60018201905091905056fea26469706673582212201d1887943554f5d0ce7833972f33a1a33363849c1b7671078adadcf15bc5df2a64736f6c634300080f0033",
  "immutableReferences": {},
  "source": "\n// SPDX-License-Identifier: MIT\npragma solidity ^0.8.0;\n\n  contract NameValue {\n\n    address payable public cmu = payable(0x5122B8510F5c246e11a860463e90fC94E7080262); //Owner address[0]\n\n    uint public rentalValue = 0.01 ether;  //Price of rental per day\n\n    address[] public allowedAddresses = [0xDCEe6401D6eA30Bd6EE8d863DfC9296892D2B39d, 0xE057411810E2942Ebb4C93f4100e2f16383F59A4]; //Array of CMU student's addresses - address[1]&[2]\n\n    struct Rental{\n        uint256 endTime;\n        address currentRenter;\n    }\n\n    Rental public currentRental; //Details of current rental (Customer)\n\n    function rentCmuScooter() external payable{\n        require(isStudent(msg.sender), \"You are not a CMU student\"); //Check if the customer is allowed\n        require(address(this).balance >= rentalValue, \"Insufficient balance to rent\");\n        require(msg.value == rentalValue, \"Incorrect rental value\");\n\n        currentRental.endTime = block.timestamp + 1 days; //Assigning end time as 1 day from block creation\n        currentRental.currentRenter = msg.sender; //Transfer ownership of scooter to customer for one day\n\n        cmu.transfer(msg.value); //Transfer the rental price to cmu\n    }\n\n    function isStudent(address _address) public view returns (bool) {\n        for (uint256 i = 0; i < allowedAddresses.length; i++) {\n            if (allowedAddresses[i] == _address) {\n                return true;\n            }\n        }\n        return false;\n    }\n\n}",
  "sourcePath": "/Users/priya/Desktop/Mini-4/Blockchain Usecases/Project/contracts/ScooterRental.sol",
  "compiler": {
    "name": "solc",
    "version": "0.8.15+commit.e14f2714.Emscripten.clang"
  },
  "schemaVersion": "3.4.8",
  "updatedAt": "2023-04-17T21:23:33.703Z",
  "devdoc": {
    "kind": "dev",
    "methods": {},
    "version": 1
  },
  "userdoc": {
    "kind": "user",
    "methods": {},
    "version": 1
  }
}